:100000004FC1000068C1000066C1000064C100006B
:1000100062C1000060C100005EC100005CC1000060
:100020005AC1000058C10000C0C40000E9C400006B
:1000300052C1000050C100004EC100004CC1000080
:100040004AC1000048C1000046C1000044C1000090
:1000500042C1000040C100003EC100003CC10000A0
:100060003AC1000038C1000036C1000034C10000B0
:1000700032C1000030C100002EC100002CC10000C0
:100080002AC1000028C1000026C1000024C10000D0
:1000900022C1000020C100000E034300690061007E
:1000A0006C006900730000000403090400010000F3
:1000B0003501120002000013012200210000250179
:1000C0000900220000E1003200030000A800040142
:1000D00003090498000E020309044701340032C1E9
:1000E0003605010904A1010901A100050109300932
:1000F000311581257F7508950281020509190129AD
:100100001015002501750195108102750895018172
:1001100003C0C0090222000101008032090400006E
:10012000010300000009211101000122320007052E
:1001300081034000041201000200000040CF1C486F
:1001400080001001020001340349004900440058B6
:1001500000200049004E00460049004E004900546E
:100160000041005300200063006F006E00740072B5
:10017000006F006C006C0065007200000000010060
:1001800000640212000200003B0229002100004D21
:10019000020900220000B2018900030000A8000447
:1001A0000103090498000E020309047602280032B4
:1001B000C13605010905A1011500250135004501DC
:1001C0007501950D05091901290D8102950381011C
:1001D00005012507463B0175049501651409398120
:1001E0004265009501810126FF0046FF00093009A4
:1001F00031093209357508950481020600FF09208E
:100200000921092209230924092509260927092882
:100210000929092A092B950C81020A21269508B182
:10022000020A2126910226FF0346FF03092C092D0D
:10023000092E092F751095048102C00902290001B9
:1002400001008032090400000203000000092111AE
:100250000100012289000705020340000A07058109
:100260000340000A12010002000000400D0F2200AE
:100270000010010200012803500053003300200049
:100280004900490044005800200063006F006E00E0
:10029000740072006F006C006C006500720000005A
:1002A00011241FBECFEFD0E1DEBFCDBF11E0A0E033
:1002B000B1E0E4ECFDE002C005900D92A03AB10778
:1002C000D9F722E0A0EAB1E001C01D92AA30B2073E
:1002D000E1F702D075C594CECF93DF9300D000D064
:1002E000CDB7DEB780B7806880BF80E890E085BF7B
:1002F00085BF80E8809361001092610011B814B846
:100300008FEF87B98AB91DB810BA82B985B918B804
:100310001BB88EB981BBE0913A01F0913B0180811D
:1003200090E00090280102C0959587950A94E2F725
:1003300080FD14C0E0913C01F0913D01808190E08E
:100340000090290102C0959587950A94E2F780FDF7
:1003500005C0E0914201F09143010995109280009F
:1003600082E0809381001092900084E0809391005D
:10037000E0913A01F0913B01808190E000902801EA
:1003800002C0959587950A94E2F780FF0DC0109200
:10039000A8011092A7011092F9011092FB0110928E
:1003A000FA01E9EAF1E077C041E0442381F380916A
:1003B000940090919500EBE0F1E097FD1DC020E0E6
:1003C00031E061917191DB015C91D90181E090E0B4
:1003D0000D9002C0880F991F0A94E2F79D01852BAA
:1003E000DB018C93B1E0E132FB0759F7ACE2B1E0FD
:1003F00021E231E060E01EC060E071E00191119106
:10040000D8019C91DB0121E030E00D9002C0220F69
:10041000331F0A94E2F7BD01822F80958923D8010A
:100420008C93B1E0E132FB0749F7E0CF6F5F6730B3
:1004300009F4BBCF8D919D91FC01808190E0F90181
:10044000019002C0959587950A94E2F79F0180FD7F
:10045000EDCFEBE0F1E040E051E001911191D801E6
:100460009C91DA0121E030E00D9002C0220F331F91
:100470000A94E2F7AD01822F80958923D8018C93ED
:10048000B1E0E132FB0749F780E090E08BD440E037
:10049000F999FDCF8ACF119221E0E93BF207D9F714
:1004A0001092FC01ECB1E295E695E695E370F0E080
:1004B000EB5BFE4F80818093A60124D28091A00146
:1004C0008823E1F38FEF93EDA0E381509040A040AB
:1004D000E1F700C0000088248394912C2224239407
:1004E0003324339424E0A22EB12CECE2F1E0FA8321
:1004F000E98301E211E087EA91E09C838B836BE062
:1005000071E040E051E0DC0121E030E0E981FA8176
:1005100080819181FC01808190E0F801008002C01F
:10052000959587950A94E2F7FB01E080F180F70149
:10053000D08080FD0AC0C401FA01008002C0880F8B
:10054000991F0A94E2F78D290AC0C401FA010080BC
:1005500002C0880F991F0A94E2F780958D21F70158
:100560008083EB81FC8182818823D1F1809184009A
:10057000909185005296CD90DD90ED90FC9055972E
:100580002C01612C712C4C145D046E047F044CF41E
:10059000F1E0EF1AF1085296CD92DD92ED92FC92C5
:1005A0005597C0908400D0908500E12CF12C529694
:1005B0004D905D906D907C905597C418D508E608D5
:1005C000F70881E2C8168EE4D806E104F1041CF0B5
:1005D000EB81FC811282EB81FC818281811137C029
:1005E0008091A7019091A8016C01C222D322E981D8
:1005F000FA81E080F180F8017080F701E080F12C51
:1006000002C0F594E7947A94E2F7CD2829F4E0FC4F
:100610001EC0822B932B07C0E0FE19C07901E09425
:10062000F0948E219F219093A8018093A70180913F
:100630008400909185006C01E12CF12C5296CD92B2
:10064000DD92ED92FC925597EB81FC812282220F84
:10065000331F89819A8102969A8389830F5F1F4F86
:100660001496EB81FC813196FC83EB836E5F7F4FA8
:100670004F5F5F4F8254914009F048CF8091FC0159
:100680008823A9F140918400509185008091FD015B
:100690009091FE01A091FF01B091000260E070E036
:1006A000481759076A077B074CF411978093FD019F
:1006B0009093FE01A093FF01B0930002809184000B
:1006C00090918500A0E0B0E04091FD015091FE01C5
:1006D0006091FF0170910002841B950BA60BB70B74
:1006E00081329E44A105B10514F01092FC01809165
:1006F000F9018823A9F140919400509195008091CF
:10070000010290910202A0910302B091040260E004
:1007100070E0481759076A077B074CF411978093DC
:10072000010290930202A0930302B093040280910D
:10073000940090919500A0E0B0E0409101025091AA
:1007400002026091030270910402841B950BA60BB8
:10075000B70B853D9043A105B10514F01092F90146
:10076000ECB12091A601022E000C330BE295E69528
:10077000E695E370F0E0EB5BFE4FE081F0E0C9014D
:100780000196B501E0D2E817F907A1F48091FA01CA
:100790009091FB0101969093FB018093FA01809167
:1007A000FC0181114AC08091F9018130C1F1309280
:1007B000F90125C0ECB1E295E695E695E370F0E02D
:1007C000EB5BFE4FE081F0E0C9010396B501BBD2BF
:1007D000E817F90791F58091FA019091FB010197D3
:1007E0009093FB018093FA018091FC01811125C057
:1007F0008091F901823099F0F2E0F093F9013092A2
:10080000FC018091840090918500A0E0B0E080938D
:10081000FD019093FE01A093FF01B093000280912F
:10082000940090919500A0E0B0E080930102909335
:100830000202A0930302B0930402ECB1E295E695A4
:10084000E695E370F0E0EB5BFE4F80818093A601BC
:10085000E0910802F0910902099547CE2091A70185
:100860003091A801F901EF73FF27E15AFE4F808113
:10087000F901EE0FEF2FEE1FFF0BF195EF70FF2741
:10088000E15BFE4F60819091F90131FF06C091302C
:1008900091F0923091F042E019C026FF06C09130ED
:1008A00071F0923071F046E011C0913061F09230F9
:1008B00061F444E00BC041E009C043E007C047E0F9
:1008C00005C045E003C040E001C04FE050E070E0EB
:1008D00090E0DBD125C26091A7017091A801AB0126
:1008E000440F452F441F550B519555276F7770E0E6
:1008F0008091FA018F5790E0ACC18091E80080FFB1
:10090000FCCF089580E090E045D2F999FECF813088
:1009100019F08230C1F039C02EEA31E0309307027D
:10092000209306022DE731E03093A4012093A30128
:1009300092E09093050297E09093A2018093A50125
:100940008EE294E015C02DED30E030930702209345
:1009500006022CEA30E03093A4012093A301809397
:10096000050287E08093A2011092A5018BE694E036
:10097000909309028093080281E88093D70080EA6F
:100980008093D8008AE189BD01C0FFCF09B400FE81
:10099000FDCF80E98093D8001092E0001092A00172
:1009A0008CE08093E200789408951F920F920FB626
:1009B0000F9211248F93EF93FF938091E100109297
:1009C000E10083FF15C0E0910602F091070210924A
:1009D000E90081E08093EB0084918093EC003196F4
:1009E000E491E093ED0088E08093F0001092A00184
:1009F000FF91EF918F910F900FBE0F901F90189560
:100A00001F920F920FB60F9211240F931F932F93E3
:100A10003F934F935F936F937F938F939F93AF9386
:100A2000BF93CF93EF93FF931092E9008091E8007A
:100A300083FFF8C08091F100C091F1000091F100B6
:100A40009091F10010E0192B4091F1003091F100EC
:100A50002091F1006091F10092EF9093E800982FBF
:100A6000907609F09AC0C63009F04FC07091A2018B
:100A700050E0532B8091A3019091A40130E03717EF
:100A800009F4D0C0FC01A591B4910A171B07D9F451
:100A9000FC013296A591B4914A175B07A1F4FC01C1
:100AA000349645915491FC013696849130E0362B72
:100AB0002F3F310519F010F02FEF30E0281708F420
:100AC000822F3EEF0AC03F5F0796D9CF490F511DD5
:100AD000891B3093E8008823A9F09091E800292F22
:100AE0002570D9F392FDA1C0982F813408F090E4CD
:100AF000FA01292F222351F364916093F1002150D0
:100B00003196F8CF903449F390C0C93069F587FD2C
:100B100089C08F7109F086C00093A0018EEF809389
:100B2000E80081E021E0909105028917B8F4309146
:100B3000060290910702E32FF92FE80FF11DE80F4D
:100B4000F11D8093E9002093EB0094919093EC00C9
:100B50003196E491E093ED008F5FE5CF8EE18093D5
:100B6000EA001092EA0061C0C53041F48EEF809334
:100B7000E800C3DE00680093E30057C0C83049F4C2
:100B800087FF50C08F7109F04DC0B7DE8091A00182
:100B90002FC0C11147C0B1DE1BC0903209F042C066
:100BA00087FF29C0C130C9F48091A5018823D1F104
:100BB000A4DE81E28093F10086E28093F100C0938D
:100BC000F10087E08093F1001092F1001092F100A3
:100BD0001092F1001092F10021C0C23021F48DDE9C
:100BE0008091A10105C0C330E9F487DE8091440102
:100BF0008093F10013C0C93041F48091E80082FF76
:100C0000FCCF8BEF8093E80009C0CA3019F4109331
:100C1000A10104C0CB3031F4009344018EEF8093E6
:100C2000E80003C081E28093EB00FF91EF91CF9148
:100C3000BF91AF919F918F917F916F915F914F91F4
:100C40003F912F911F910F910F900FBE0F901F900A
:100C500018959091A0019923B9F09FB7F89421E0DD
:100C60002093E9002091E80025FF0DC08093F1005A
:100C70001092F1006093F1004093F1001092F100A6
:100C80008AE38093E8009FBF08959091A001992383
:100C900009F445C09FB7F89421E02093E900209122
:100CA000E80025FF3BC08093F1006093F100409382
:100CB000F10080E88093F1008093F1008093F100CF
:100CC0008093F1001092F1001092F1001092F10067
:100CD0001092F1001092F1001092F1001092F100C8
:100CE0001092F1001092F1001092F1001092F100B8
:100CF0001092F1001092F10082E08093F1001092C6
:100D0000F1008093F1001092F1008093F1001092B5
:100D1000F1008093F1008AE38093E8009FBF08957B
:100D20008091A001882371F08FB7F89492E090939E
:100D3000E9009091E80095FF04C09091E8001092BE
:100D4000E8008FBF089597FB072E16F4009406D095
:100D500077FD08D00BD007FC05D03EF49095819527
:100D60009F4F0895709561957F4F0895AA1BBB1BF7
:100D700051E107C0AA1FBB1FA617B70710F0A61B9B
:100D8000B70B881F991F5A95A9F780959095BC01BC
:100D9000CD010895F999FECF92BD81BDF89A9927AA
:100DA00080B50895262FF999FECF1FBA92BD81BD57
:100DB00020BD0FB6F894FA9AF99A0FBE01960895DD
:040DC000F894FFCFD5
:100DC400070605040302010506070026002600267F
:100DD40000260026002600260029002900290026D6
:100DE4000007060504030201050607002000200091
:100DF400200020002000200020002F002F002F00C2
:100E0400200000780100010302D430204E204E005F
:100E14000201030002010310121113101211130036
:100E24000110110203121320213031222332330422
:100E3400051415060716172425343526273637409A
:100E44004150514243525360617071626372734402
:100E540045545546475657646574756667767700FA
:00000001FF
