:10000000E6C00000FFC00000FDC00000FBC0000013
:10001000F9C00000F7C00000F5C00000F3C0000008
:10002000F1C00000EFC0000058C1000086C1000010
:10003000E9C00000E7C00000E5C00000E3C0000028
:10004000E1C00000DFC00000DDC00000DBC0000038
:10005000D9C00000D7C00000D5C00000D3C0000048
:10006000D1C00000CFC00000CDC00000CBC0000058
:10007000C9C00000C7C00000C5C00000C3C0000068
:10008000C1C00000BFC00000BDC00000BBC0000078
:10009000B9C00000B7C000001603310039003100BC
:1000A0003200300036005F003000300030000000C9
:1000B0000E034300690061006C00690073000000DA
:1000C0000403090400010000920112000200007004
:1000D00001220021000082010900220000000170BD
:1000E00000030000C0000401030904B0000E020375
:1000F0000904A40128030309049800160032C1363C
:1001000005010905A101150025013500450175010D
:10011000950D05091901290D81029503810105013C
:100120002507463B0175049501651409398142652F
:10013000009501810126FF0046FF000930093109C1
:100140003209357508950481020600FF092009214E
:10015000092209230924092509260927092809292B
:10016000092A092B950C81020A21269508B102C0A3
:100170000902220001010080FA09040000010300C5
:1001800000000921110100012270000705810340D0
:10019000000A12011001000000404C036803000136
:1001A00001020301280350005300330020004900DE
:1001B000490044005800200063006F006E00740086
:1001C00072006F006C006C0065007200000011246A
:1001D0001FBECFEFD0E1DEBFCDBF11E0A0E0B1E0A8
:1001E000ECE2F6E002C005900D92A231B107D9F71A
:1001F00021E0A2E1B1E001C01D92AE35B207E1F706
:1002000002D012C2FDCE80B7806880BF80E890E047
:1002100085BF85BF11B814B817B81AB81DB810BA81
:100220008FEF82B985B988B98BB98EB981BB80E867
:10023000809361001092610080E095D1809112015D
:100240008823E1F32FEF83ED90E32150804090402D
:10025000E1F700C00000E0911401F091150109954B
:1002600006D0F9CF8091E80080FFFCCF08958091FF
:1002700012018823D9F09FB7F89481E08093E900B8
:100280008091E80085FF11C080E02091160182175F
:1002900048F4E82FF0E0E65EFE4F20812093F10065
:1002A0008F5FF3CF8AE38093E8009FBF08959C019E
:1002B000220F331FE0915C01F0915D01E20FF31F0B
:1002C0008093E90081E08093EB0084918093EC00BF
:1002D0003196E491E093ED0008951F920F920FB6CE
:1002E0000F9211242F933F934F935F936F937F93BC
:1002F0008F939F93AF93BF93EF93FF938091E10010
:100300001092E10083FF08C080E090E0D0DF88E039
:100310008093F00010921201FF91EF91BF91AF9185
:100320009F918F917F916F915F914F913F912F910D
:100330000F900FBE0F901F9018951F920F920FB63F
:100340000F9211240F931F932F933F934F935F931B
:100350006F937F938F939F93AF93BF93CF93EF93BD
:10036000FF931092E9008091E80083FFE5C080913F
:10037000F100C091F1000091F1009091F10010E0C6
:10038000192B4091F1003091F1002091F100609122
:10039000F10092EF9093E800982F907609F087C0D3
:1003A000C63009F04FC070915A0150E0532B809134
:1003B00017019091180130E0371709F4BDC0FC0116
:1003C000A591B4910A171B07D9F4FC013296A591A7
:1003D000B4914A175B07A1F4FC01349645915491FE
:1003E000FC013696849130E0362B2F3F310519F011
:1003F00010F02FEF30E0281708F4822F3EEF0AC0EC
:100400003F5F0796D9CF490F511D891B3093E800F4
:100410008823A9F09091E800292F2570D9F392FD47
:100420008EC0982F813408F090E4FA01292F2223FE
:1004300051F364916093F10021503196F8CF9034DC
:1004400049F37DC0C930D1F487FD76C08F7109F0C2
:1004500073C0009312018EEF8093E800C1E0809199
:100460005B01C81728F48C2F90E021DFCF5FF7CF16
:100470008EE18093EA001092EA0061C0C53041F439
:100480008EEF8093E800EEDE00680093E30057C033
:10049000C83049F487FF50C08F7109F04DC0E2DECB
:1004A000809112012FC0C11147C0DCDE1BC0903209
:1004B00009F042C087FF29C0C130C9F480911901F9
:1004C0008823D1F1CFDE81E28093F10086E2809330
:1004D000F100C093F10087E08093F1001092F100E9
:1004E0001092F1001092F1001092F10021C0C23080
:1004F00021F4B8DE8091130105C0C330E9F4B2DE07
:10050000809100018093F10013C0C93041F48091C3
:10051000E80082FFFCCF8BEF8093E80009C0CA306F
:1005200019F41093130104C0CB3031F4009300018F
:100530008EEF8093E80003C081E28093EB00FF918F
:10054000EF91CF91BF91AF919F918F917F916F91DB
:100550005F914F913F912F911F910F910F900FBE7F
:100560000F901F90189581111EC081E08093190192
:100570008CEF90E090935D0180935C0182E080932A
:100580005B0184EC90E0909318018093170188E060
:1005900080935A018AEE92E09093150180931401A2
:1005A00083E18093160181E88093D70080EA8093ED
:1005B000D8008AE189BD09B400FEFDCF80E98093AF
:1005C000D8001092E000109212018CE08093E200BB
:1005D0007894089580B1EAE1F1E08095808386B156
:1005E00080958183AFB189B1B0E0A095B09584E0EA
:1005F000B595A7958A95E1F7AF70BB27AF5FBE4F62
:100600008C91828380E883838483858386831782A9
:10061000108611861286138614861586168617860E
:0C062000108A118A128A0895F894FFCF06
:10062C000108060405020803080007080801080869
:02063C000800B4
:00000001FF
