:10000000B4C00000CDC00000CBC00000C9C00000DB
:10001000C7C00000C5C00000C3C00000C1C00000D0
:10002000BFC00000BDC0000061C200008AC2000065
:10003000B7C00000B5C00000B3C00000B1C00000F0
:10004000AFC00000ADC00000ABC00000A9C0000000
:10005000A7C00000A5C00000A3C00000A1C0000010
:100060009FC000009DC000009BC0000099C0000020
:1000700097C0000095C0000093C0000091C0000030
:100080008FC000008DC000008BC0000089C0000040
:1000900087C0000085C000000E03430069006100B6
:1000A0006C006900730000000403090400010000F3
:1000B0003501120002000013012200210000250179
:1000C0000900220000E1003200030000A800040142
:1000D00003090498000E020309044701200032C1FD
:1000E0003605010904A1010901A100050109300932
:1000F000311581257F7508950281020509190129AD
:100100001015002501750195108102750895018172
:1001100003C0C0090222000101008032090400006E
:10012000010300000009211101000122320007052E
:1001300081034000041201000200000040CF1C14A3
:100140001000100102000120035300440056005823
:1001500000200063006F006E00740072006F006C7E
:10016000006C006500720000000011241FBECFEF7C
:10017000D0E1DEBFCDBF11E0A0E0B1E0E0EEF7E0FE
:1001800002C005900D92A634B107D9F721E0A6E48C
:10019000B1E001C01D92A73AB207E1F702D01EC339
:1001A0002FCF80B7806880BF80E890E085BF85BF93
:1001B00080E8809361001092610011B88FEF84B9DC
:1001C00017B81AB81DB810BA82B915B888B98BB962
:1001D0008EB981BB86B1829583708093A20186B16E
:1001E000829586958695837080934C01E0912401D9
:1001F000F0912501808190E00090190102C0959551
:1002000087950A94E2F780FD14C0E0912601F091F1
:100210002701808190E000901A0102C09595879592
:100220000A94E2F780FD05C0E0913F01F0914001A2
:10023000099510924E0110924D0110929F0110925B
:10024000A001E6B1E295E370F0E0EE5BFE4F808145
:100250008093A201E6B1E295E695E695E370F0E0C1
:10026000EE5BFE4F808180934C0106D18091460168
:100270008823E1F32FEF83ED90E3215080409040FD
:10028000E1F700C0000088248394912C4CE151E0F8
:1002900065E171E001E311E09AE2E92E91E0F92EC7
:1002A000A7E0B1E0E0E0F1E021E030E0EA0189918F
:1002B0009991AE01EC01888190E0EB01099002C0B8
:1002C000959587950A94E2F7BE0180FD18C080914C
:1002D0004D0190914E01822B932B90934E01809370
:1002E0004D01CD90DC901197E601B880C4010080EB
:1002F00002C0880F991F0A94E2F78B298883E801CE
:10030000899199918E01EC01888190E0E701099033
:1003100002C0959587950A94E2F77E0180FD1DC085
:10032000C0904D01D0904E01C901809590958C21CF
:100330009D2190934E0180934D01CD90DC901197BB
:10034000E60198815401008002C0AA0CBB1C0A94EB
:10035000E2F78A2D809589238883220F331F129616
:100360003196D1E04A325D0709F0A0CFE6B1809125
:10037000A20190E0E295E370F0E0EE5BFE4F408179
:1003800050E09C012F5F3F4F2370332742175307E4
:1003900021F480919F018F5F11C0E6B1E295E37077
:1003A000F0E0EE5BFE4F208130E0039683709927EA
:1003B0002817390729F480919F01815080939F016C
:1003C000E6B180914C0190E0E295E695E695E37008
:1003D000F0E0EE5BFE4F408150E09C012F5F3F4F0D
:1003E000237033274217530721F48091A0018F5FB8
:1003F00013C0E6B1E295E695E695E370F0E0EE5BBA
:10040000FE4F208130E00396837099272817390723
:1004100029F48091A00181508093A001E6B1E2957A
:10042000E370F0E0EE5BFE4F80818093A201E6B1C5
:10043000E295E695E695E370F0E0EE5BFE4F808195
:1004400080934C01E091A501F091A60109951ECF82
:1004500090914D01492F440F842F8F7796FB4427AD
:1004600040F9482B6091A00180919F0193C1809138
:10047000E80080FFFCCF089580E090E0A7D1F999D3
:10048000FECF803119F58DED90E09093A40180931B
:10049000A3018CEA90E090934A018093490182E0A5
:1004A0008093A10187E08093480110924B0188E27C
:1004B00092E09093A6018093A50181E88093D700F4
:1004C00080EA8093D8008AE189BD01C0FFCF09B4DA
:1004D00000FEFDCF80E98093D8001092E0001092DA
:1004E00046018CE08093E200789408951F920F9269
:1004F0000FB60F9211248F93EF93FF938091E10039
:100500001092E10083FF15C0E091A301F091A401D6
:100510001092E90081E08093EB0084918093EC00DD
:100520003196E491E093ED0088E08093F000109222
:100530004601FF91EF918F910F900FBE0F901F908A
:1005400018951F920F920FB60F9211240F931F93BD
:100550002F933F934F935F936F937F938F939F93CB
:10056000AF93BF93CF93EF93FF931092E9008091E5
:10057000E80083FFF8C08091F100C091F100009184
:10058000F1009091F10010E0192B4091F1003091B1
:10059000F1002091F1006091F10092EF9093E8005A
:1005A000982F907609F09AC0C63009F04FC070912C
:1005B000480150E0532B8091490190914A0130E06D
:1005C000371709F4D0C0FC01A591B4910A171B0795
:1005D000D9F4FC013296A591B4914A175B07A1F4B6
:1005E000FC01349645915491FC013696849130E09B
:1005F000362B2F3F310519F010F02FEF30E0281780
:1006000008F4822F3EEF0AC03F5F0796D9CF490F0B
:10061000511D891B3093E8008823A9F09091E800D0
:10062000292F2570D9F392FDA1C0982F813408F0AD
:1006300090E4FA01292F222351F364916093F10091
:1006400021503196F8CF903449F390C0C93069F504
:1006500087FD89C08F7109F086C0009346018EEF37
:100660008093E80081E021E09091A1018917B8F41E
:100670003091A3019091A401E32FF92FE80FF11D10
:10068000E80FF11D8093E9002093EB009491909383
:10069000EC003196E491E093ED008F5FE5CF8EE1C1
:1006A0008093EA001092EA0061C0C53041F48EEFF9
:1006B0008093E800DCDE00680093E30057C0C83098
:1006C00049F487FF50C08F7109F04DC0D0DE809192
:1006D00046012FC0C11147C0CADE1BC0903209F0CD
:1006E00042C087FF29C0C130C9F480914B018823E3
:1006F000D1F1BDDE81E28093F10086E28093F100CA
:10070000C093F10087E08093F1001092F100109205
:10071000F1001092F1001092F10021C0C23021F4DA
:10072000A6DE8091470105C0C330E9F4A0DE8091C8
:1007300041018093F10013C0C93041F48091E80079
:1007400082FFFCCF8BEF8093E80009C0CA3019F418
:100750001093470104C0CB3031F4009341018EEF78
:100760008093E80003C081E28093EB00FF91EF915A
:10077000CF91BF91AF919F918F917F916F915F9139
:100780004F913F912F911F910F910F900FBE0F909E
:100790001F901895909146019923B9F09FB7F8944E
:1007A00021E02093E9002091E80025FF0DC080930F
:1007B000F1006093F1004093F1001092F10010926B
:1007C000F1008AE38093E8009FBF0895F999FECF76
:1007D00092BD81BDF89A992780B50895F894FFCF0E
:1007E000070605040302012300230023002300233E
:1007F000002300230006040200060402200020005B
:10080000200020002F002F002F00070503010705FF
:100810000320002000200020002F002F002F0000C8
:0608200078010003010253
:00000001FF
