:10000000F6C000000FC100000DC100000BC10000D0
:1000100009C1000007C1000005C1000003C10000C4
:1000200001C10000FFC0000027C4000050C4000050
:10003000F9C00000F7C00000F5C00000F3C00000E8
:10004000F1C00000EFC00000EDC00000EBC00000F8
:10005000E9C00000E7C00000E5C00000E3C0000008
:10006000E1C00000DFC00000DDC00000DBC0000018
:10007000D9C00000D7C00000D5C00000D3C0000028
:10008000D1C00000CFC00000CDC00000CBC0000038
:10009000C9C00000C7C0000016033100390031009C
:1000A0003200300036005F003000300030000000C9
:1000B0000E034300690061006C00690073000000DA
:1000C0000403090400010000B201120002000089CB
:1000D0000129002100009B01090022000000018984
:1000E00000030000C0000401030904B0000E020375
:1000F0000904C40128030309049800160032C1361C
:1001000005010905A101150025013500450175010D
:10011000950D05091901290D81029503810105013C
:100120002507463B0175049501651409398142652F
:10013000009501810126FF0046FF000930093109C1
:100140003209357508950481020600FF092009214E
:10015000092209230924092509260927092809292B
:10016000092A092B950C81020A21269508B1020A59
:100170002126910226FF0346FF03092C092D092E93
:10018000092F751095048102C009022900010100A0
:10019000803209040000020300000009211101005F
:1001A000012289000705020340000A070581034078
:1001B000000A12010002000000400D0F2200001092
:1001C00001020001280350005300330020004900C1
:1001D000490044005800200063006F006E00740066
:1001E00072006F006C006C0065007200000011244A
:1001F0001FBECFEFD0E1DEBFCDBF11E0A0E0B1E088
:10020000E2E7FBE002C005900D92A43AB107D9F7EE
:1002100022E0A4EAB1E001C01D92A231B207E1F7E9
:1002200002D0A5C4EDCECF93DF9300D000D0CDB7E0
:10023000DEB780B7806880BF80E890E085BF85BF6B
:1002400011B814B88FEF87B98AB91DB810BA82B93E
:1002500085B918B81BB88EB981BB7D9907C07E9946
:1002600005C0E0914201F091430109951092800090
:1002700082E0809381001092900084E0809391004E
:100280001092A9011092A8011092FA011092FC019B
:100290001092FB01EAEAF1E0119221E0EA3BF20759
:1002A000D9F71092FD01ECB1E295E695E695E37081
:1002B000F0E0EB5BFE4F80818093A70180E88093A4
:1002C000610010926100FCD18091A4018823E1F3C8
:1002D0008FEF93EDE0E381509040E040E1F700C004
:1002E000000088248394912C222423943324339473
:1002F00024E0A22EB12C8CE291E09A83898301E262
:1003000011E0A8EAB1E06BE071E040E051E0BC83AD
:10031000AB8321E030E0E981FA8180819181FC01A9
:10032000808190E0F801008002C0959587950A943D
:10033000E2F7FB01E080F180F701D08080FD0AC088
:10034000C401FA01008002C0880F991F0A94E2F7E5
:100350008D290AC0C401FA01008002C0880F991FCC
:100360000A94E2F780958D21F7018083EB81FC816F
:1003700082818823D1F180918400909185005296EA
:10038000CD90DD90ED90FC9055972C01612C712C57
:100390004C145D046E047F044CF4F1E0EF1AF10894
:1003A0005296CD92DD92ED92FC925597C0908400CA
:1003B000D0908500E12CF12C52964D905D906D907F
:1003C0007C905597C418D508E608F70881E2C8164E
:1003D0008EE4D806E104F1041CF0EB81FC8112826A
:1003E000EB81FC818281811137C08091A8019091BD
:1003F000A9016C01C222D322E981FA81E080F18057
:10040000F8017080F701E080F12C02C0F594E794C8
:100410007A94E2F7CD2829F4E0FC1EC0822B932BBE
:1004200007C0E0FE19C07901E094F0948E219F216D
:100430009093A9018093A8018091840090918500F8
:100440006C01E12CF12C5296CD92DD92ED92FC9252
:100450005597EB81FC812282220F331F89819A817B
:1004600002969A8389830F5F1F4F1496EB81FC815C
:100470003196FC83EB836E5F7F4F4F5F5F4F8254FB
:10048000914009F048CF8091FD018823A9F1409166
:100490008400509185008091FE019091FF01A09110
:1004A0000002B091010260E070E0481759076A0746
:1004B0007B074CF411978093FE019093FF01A0936A
:1004C0000002B09301028091840090918500A0E029
:1004D000B0E04091FE015091FF01609100027091E7
:1004E0000102841B950BA60BB70B81329E44A1051C
:1004F000B10514F01092FD018091FA018823A9F151
:1005000040919400509195008091020290910302D5
:10051000A0910402B091050260E070E0481759070D
:100520006A077B074CF411978093020290930302B1
:10053000A0930402B09305028091940090919500DD
:10054000A0E0B0E0409102025091030260910402E9
:1005500070910502841B950BA60BB70B8F33994442
:10056000A105B10514F01092FA01ECB12091A70198
:10057000022E000C330BE295E695E695E370F0E071
:10058000EB5BFE4FE081F0E0C9010196B501C8D2F6
:10059000E817F907A1F48091FB019091FC01019605
:1005A0009093FC018093FB018091FD0181114AC071
:1005B0008091FA018130C1F13092FA0125C0ECB18D
:1005C000E295E695E695E370F0E0EB5BFE4FE081A7
:1005D000F0E0C9010396B501A3D2E817F90791F538
:1005E0008091FB019091FC0101979093FC01809315
:1005F000FB018091FD01811125C08091FA018230BB
:1006000099F0F2E0F093FA013092FD0180918400BC
:1006100090918500A0E0B0E08093FE019093FF01EF
:10062000A0930002B09301028091940090919500F4
:10063000A0E0B0E08093020290930302A093040232
:10064000B0930502ECB1E295E695E695E370F0E033
:10065000EB5BFE4F80818093A70119828091060297
:100660009981981798F490910D0280910E02E92FCC
:10067000F82F2981E20FF11DE20FF11D0190F081A9
:10068000E02D099589818F5F8983E8CF1982809158
:100690000A029981981708F02ECE90910B02809152
:1006A0000C02E92FF82F2981E20FF11DE20FF11D55
:1006B0000190F081E02D099589818F5F8983E7CFD3
:1006C0008CEF90E0909311028093100284EC90E004
:1006D000909309028093080281EA91E090930E02C0
:1006E00080930D028FE991E090930C0280930B02AE
:1006F00082E080930F0288E08093070281E080937C
:10070000060280930A028093A50181E88093D700B6
:1007100080EA8093D8008AE189BD09B400FEFDCF4C
:1007200080E98093D8001092E0001092A4018CE040
:100730008093E200789408958091A401882309F4BD
:1007400082C09FB7F89481E08093E9008091E8002F
:1007500085FF78C0E091A801F091A901EF73FF2710
:10076000E15AFE4F80818093F100E091A801F09161
:10077000A901EE0FEF2FEE1FFF0BF195EF70FF2792
:10078000E15BFE4F80818093F1002091A8013091C0
:10079000A9018091FA0131FF08C08130E1F0823077
:1007A00011F483E018C082E016C026FF0AC0813031
:1007B00011F487E010C0823011F485E00CC086E0AF
:1007C0000AC0813019F41092F10007C0823011F490
:1007D00084E001C08FE08093F10080E88093F10015
:1007E0008093F1008093F1008093F1001092F1006A
:1007F0001092F1001092F1001092F1001092F100AD
:100800001092F1001092F1001092F1001092F1009C
:100810001092F1001092F1001092F1001092F1008C
:1008200082E08093F1001092F1008093F100109229
:10083000F1008093F1001092F1008093F1008AE3BF
:100840008093E8009FBF08958091A401882371F0F0
:100850008FB7F89492E09093E9009091E80095FFAB
:1008600004C09091E8001092E8008FBF0895809135
:10087000E80080FFFCCF08951F920F920FB60F92F1
:1008800011248F93EF93FF938091E1001092E10088
:1008900083FF15C0E0911002F09111021092E9005F
:1008A00081E08093EB0084918093EC003196E49199
:1008B000E093ED0088E08093F0001092A401FF9196
:1008C000EF918F910F900FBE0F901F9018951F9270
:1008D0000F920FB60F9211240F931F932F933F93F4
:1008E0004F935F936F937F938F939F93AF93BF9338
:1008F000CF93EF93FF931092E9008091E80083FF7C
:10090000F8C08091F100C091F1000091F100909148
:10091000F10010E0192B4091F1003091F10020918D
:10092000F1006091F10092EF9093E800982F90769B
:1009300009F09AC0C63009F04FC07091070250E02C
:10094000532B809108029091090230E0371709F487
:10095000D0C0FC01A591B4910A171B07D9F4FC0182
:100960003296A591B4914A175B07A1F4FC01349625
:1009700045915491FC013696849130E0362B2F3FFF
:10098000310519F010F02FEF30E0281708F4822F0E
:100990003EEF0AC03F5F0796D9CF490F511D891B13
:1009A0003093E8008823A9F09091E800292F257062
:1009B000D9F392FDA1C0982F813408F090E4FA0198
:1009C000292F222351F364916093F1002150319635
:1009D000F8CF903449F390C0C93069F587FD89C0DC
:1009E0008F7109F086C00093A4018EEF8093E80018
:1009F00081E021E090910F028917B8F43091100244
:100A000090911102E32FF92FE80FF11DE80FF11D6E
:100A10008093E9002093EB0094919093EC00319641
:100A2000E491E093ED008F5FE5CF8EE18093EA00E3
:100A30001092EA0061C0C53041F48EEF8093E80067
:100A400016DF00680093E30057C0C83049F487FF01
:100A500050C08F7109F04DC00ADF8091A4012FC0F2
:100A6000C11147C004DF1BC0903209F042C087FFAC
:100A700029C0C130C9F48091A5018823D1F1F7DEE6
:100A800081E28093F10086E28093F100C093F1004F
:100A900087E08093F1001092F1001092F100109223
:100AA000F1001092F10021C0C23021F4E0DE80910B
:100AB000A60105C0C330E9F4DADE809144018093D9
:100AC000F10013C0C93041F48091E80082FFFCCFEF
:100AD0008BEF8093E80009C0CA3019F41093A60187
:100AE00004C0CB3031F4009344018EEF8093E800D2
:100AF00003C081E28093EB00FF91EF91CF91BF9112
:100B0000AF919F918F917F916F915F914F913F91A5
:100B10002F911F910F910F900FBE0F901F9018955E
:100B200097FB072E16F4009406D077FD08D00BD063
:100B300007FC05D03EF4909581959F4F08957095E0
:100B400061957F4F0895AA1BBB1B51E107C0AA1FE7
:100B5000BB1FA617B70710F0A61BB70B881F991F5E
:100B60005A95A9F780959095BC01CD010895F89408
:020B7000FFCFB5
:100B720007060504030201050607002600260026D3
:100B8200002600260026002600290029002900262A
:100B920000070605040302010506070020002000E5
:100BA200200020002000200020002F002F002F0016
:100BB2002000007801000103023E49204E204E0031
:100BC200020103000201031012111310121113008B
:100BD2000110110203121320213031222332330477
:100BE20005141506071617242534352627363740EF
:100BF2004150514243525360617071626372734457
:100C0200455455464756576465747566677677242A
:040C1200049C03003B
:00000001FF
