:10000000F6C000000FC100000DC100000BC10000D0
:1000100009C1000007C1000005C1000003C10000C4
:1000200001C10000FFC0000025C400004EC4000054
:10003000F9C00000F7C00000F5C00000F3C00000E8
:10004000F1C00000EFC00000EDC00000EBC00000F8
:10005000E9C00000E7C00000E5C00000E3C0000008
:10006000E1C00000DFC00000DDC00000DBC0000018
:10007000D9C00000D7C00000D5C00000D3C0000028
:10008000D1C00000CFC00000CDC00000CBC0000038
:10009000C9C00000C7C0000016033100390031009C
:1000A0003200300036005F003000300030000000C9
:1000B0000E034300690061006C00690073000000DA
:1000C0000403090400010000B201120002000089CB
:1000D0000129002100009B01090022000000018984
:1000E00000030000C0000401030904B0000E020375
:1000F0000904C40128030309049800160032C1361C
:1001000005010905A101150025013500450175010D
:10011000950D05091901290D81029503810105013C
:100120002507463B0175049501651409398142652F
:10013000009501810126FF0046FF000930093109C1
:100140003209357508950481020600FF092009214E
:10015000092209230924092509260927092809292B
:10016000092A092B950C81020A21269508B1020A59
:100170002126910226FF0346FF03092C092D092E93
:10018000092F751095048102C009022900010100A0
:10019000803209040000020300000009211101005F
:1001A000012289000705020340000A070581034078
:1001B000000A12010002000000400D0F2200001092
:1001C00001020001280350005300330020004900C1
:1001D000490044005800200063006F006E00740066
:1001E00072006F006C006C0065007200000011244A
:1001F0001FBECFEFD0E1DEBFCDBF11E0A0E0B1E088
:10020000E6E3FBE002C005900D92A43AB107D9F7EE
:1002100022E0A4EAB1E001C01D92A131B207E1F7EA
:1002200002D087C4EDCECF93DF9300D000D0CDB7FE
:10023000DEB780B7806880BF80E890E085BF85BF6B
:1002400011B814B88FEF87B98AB91DB810BA82B93E
:1002500085B918B81BB88EB981BB7D9907C07E9946
:1002600005C0E0914201F091430109951092800090
:1002700082E0809381001092900084E0809391004E
:100280001092A8011092A7011092F9011092FB019F
:100290001092FA01E9EAF1E0119221E0E93BF2075C
:1002A000D9F71092FC01ECB1E295E695E695E37082
:1002B000F0E0EB5BFE4F80818093A60180E88093A5
:1002C000610010926100FCD18091A4018823E1F3C8
:1002D0008FEF93EDE0E381509040E040E1F700C004
:1002E000000088248394912C222423943324339473
:1002F00024E0A22EB12C8CE291E09A83898301E262
:1003000011E0A7EAB1E06BE071E040E051E0BC83AE
:10031000AB8321E030E0E981FA8180819181FC01A9
:10032000808190E0F801008002C0959587950A943D
:10033000E2F7FB01E080F180F701D08080FD0AC088
:10034000C401FA01008002C0880F991F0A94E2F7E5
:100350008D290AC0C401FA01008002C0880F991FCC
:100360000A94E2F780958D21F7018083EB81FC816F
:1003700082818823D1F180918400909185005296EA
:10038000CD90DD90ED90FC9055972C01612C712C57
:100390004C145D046E047F044CF4F1E0EF1AF10894
:1003A0005296CD92DD92ED92FC925597C0908400CA
:1003B000D0908500E12CF12C52964D905D906D907F
:1003C0007C905597C418D508E608F70881E2C8164E
:1003D0008EE4D806E104F1041CF0EB81FC8112826A
:1003E000EB81FC818281811137C08091A7019091BE
:1003F000A8016C01C222D322E981FA81E080F18058
:10040000F8017080F701E080F12C02C0F594E794C8
:100410007A94E2F7CD2829F4E0FC1EC0822B932BBE
:1004200007C0E0FE19C07901E094F0948E219F216D
:100430009093A8018093A7018091840090918500FA
:100440006C01E12CF12C5296CD92DD92ED92FC9252
:100450005597EB81FC812282220F331F89819A817B
:1004600002969A8389830F5F1F4F1496EB81FC815C
:100470003196FC83EB836E5F7F4F4F5F5F4F8254FB
:10048000914009F048CF8091FC018823A9F1409167
:100490008400509185008091FD019091FE01A09112
:1004A000FF01B091000260E070E0481759076A0749
:1004B0007B074CF411978093FD019093FE01A0936C
:1004C000FF01B09300028091840090918500A0E02C
:1004D000B0E04091FD015091FE016091FF017091EB
:1004E0000002841B950BA60BB70B81329E44A1051D
:1004F000B10514F01092FC018091F9018823A9F153
:1005000040919400509195008091010290910202D7
:10051000A0910302B091040260E070E0481759070F
:100520006A077B074CF411978093010290930202B3
:10053000A0930302B09304028091940090919500DF
:10054000A0E0B0E0409101025091020260910302EC
:1005500070910402841B950BA60BB70B8F33994443
:10056000A105B10514F01092F901ECB12091A6019A
:10057000022E000C330BE295E695E695E370F0E071
:10058000EB5BFE4FE081F0E0C9010196B501AAD214
:10059000E817F907A1F48091FA019091FB01019607
:1005A0009093FB018093FA018091FC0181114AC074
:1005B0008091F9018130C1F13092F90125C0ECB18F
:1005C000E295E695E695E370F0E0EB5BFE4FE081A7
:1005D000F0E0C9010396B50185D2E817F90791F556
:1005E0008091FA019091FB0101979093FB01809318
:1005F000FA018091FC01811125C08091F9018230BE
:1006000099F0F2E0F093F9013092FC0180918400BE
:1006100090918500A0E0B0E08093FD019093FE01F1
:10062000A093FF01B09300028091940090919500F7
:10063000A0E0B0E08093010290930202A093030235
:10064000B0930402ECB1E295E695E695E370F0E034
:10065000EB5BFE4F80818093A60119828091050299
:100660009981981798F490910C0280910D02E92FCE
:10067000F82F2981E20FF11DE20FF11D0190F081A9
:10068000E02D099589818F5F8983E8CF1982809158
:1006900009029981981708F02ECE90910A02809154
:1006A0000B02E92FF82F2981E20FF11DE20FF11D56
:1006B0000190F081E02D099589818F5F8983E7CFD3
:1006C0008CEF90E09093100280930F0284EC90E006
:1006D000909308028093070281EA91E090930D02C3
:1006E00080930C028FE991E090930B0280930A02B1
:1006F00082E080930E0288E08093060281E080937E
:1007000005028093090281E88093D70080EA8093F4
:10071000D8008AE189BD09B400FEFDCF80E980934D
:10072000D8001092E0001092A4018CE08093E200C7
:10073000789408958091A401882309F482C09FB71A
:10074000F89481E08093E9008091E80085FF78C00B
:10075000E091A701F091A801EF73FF27E15AFE4F46
:1007600080818093F100E091A701F091A801EE0F44
:10077000EF2FEE1FFF0BF195EF70FF27E15BFE4FB0
:1007800080818093F1002091A7013091A801809190
:10079000F90131FF08C08130E1F0823011F483E0CB
:1007A00018C082E016C026FF0AC0813011F487E02D
:1007B00010C0823011F485E00CC086E00AC08130A0
:1007C00019F41092F10007C0823011F484E001C0E6
:1007D0008FE08093F10080E88093F1008093F10036
:1007E0008093F1008093F1001092F1001092F100DB
:1007F0001092F1001092F1001092F1001092F100AD
:100800001092F1001092F1001092F1001092F1009C
:100810001092F1001092F1001092F10082E08093AA
:10082000F1001092F1008093F1001092F10080939A
:10083000F1001092F1008093F1008AE38093E800C8
:100840009FBF08958091A401882371F08FB7F89419
:1008500092E09093E9009091E80095FF04C0909198
:10086000E8001092E8008FBF08958091E80080FFB3
:10087000FCCF08951F920F920FB60F9211248F9301
:10088000EF93FF938091E1001092E10083FF15C088
:10089000E0910F02F09110021092E90081E0809344
:1008A000EB0084918093EC003196E491E093ED00AD
:1008B00088E08093F0001092A401FF91EF918F9156
:1008C0000F900FBE0F901F9018951F920F920FB6AA
:1008D0000F9211242F933F934F935F936F937F93C6
:1008E0008F939F93AF93BF93CF93DF93EF93FF9338
:1008F0001092E9008091E80083FFDEC09091F10042
:100900008091F100C091F1002091F100D0E0D22B54
:100910004091F100E091F1002091F1006091F1002F
:1009200032EF3093E800392F307609F09CC08630E2
:1009300009F04EC07091060250E05E2B80910702D4
:1009400090910802371709F4B7C0FC01A591B49142
:10095000CA17DB07D9F4FC013296A591B4914A1766
:100960005B07A1F4FC01349645915491FC01369645
:10097000849130E0362B2F3F310519F010F02FEF26
:1009800030E0281708F4822F3EEF0AC03F5F079639
:10099000D9CF490F511D891B3093E8008823A9F056
:1009A0009091E800292F2570D9F392FD88C0982FE7
:1009B000813408F090E4FA01292F222351F3649145
:1009C0006093F10021503196F8CF903449F377C00D
:1009D000893069F597FD70C09F7109F06DC0C093B3
:1009E000A4018EEF8093E80081E021E090910E0257
:1009F0008917B8F430910F0290911002E32FF92F6C
:100A0000E80FF11DE80FF11D8093E9002093EB0042
:100A100094919093EC003196E491E093ED008F5F18
:100A2000E5CF8EE18093EA001092EA0048C085305D
:100A300041F48EEF8093E80018DFC068C093E300B4
:100A40003EC0883041F497FF37C09F71A9F50DDF94
:100A50008091A40117C081112FC007DF1092F1000F
:100A60001092F10025C0303239F597FF0EC0823068
:100A700021F4FBDE8091A50105C08330E9F4F5DEA9
:100A8000809144018093F10013C0893041F480913A
:100A9000E80082FFFCCF8BEF8093E80009C08A302A
:100AA00019F4D093A50104C08B3031F4C0934401F4
:100AB0008EEF8093E80003C081E28093EB00FF910A
:100AC000EF91DF91CF91BF91AF919F918F917F91E6
:100AD0006F915F914F913F912F910F900FBE0F90AB
:100AE0001F90189597FB072E16F4009406D077FDFB
:100AF00008D00BD007FC05D03EF4909581959F4F10
:100B00000895709561957F4F0895AA1BBB1B51E115
:100B100007C0AA1FBB1FA617B70710F0A61BB70B6D
:100B2000881F991F5A95A9F780959095BC01CD0112
:060B30000895F894FFCFC8
:100B3600070605040302010506070026002600260F
:100B46000026002600260026002900290029002666
:100B56000007060504030201050607002000200021
:100B6600200020002000200020002F002F002F0052
:100B76002000007801000103023E49204E204E006D
:100B860002010300020103101211131012111300C7
:100B960001101102031213202130312223323304B3
:100BA600051415060716172425343526273637402B
:100BB6004150514243525360617071626372734493
:100BC6004554554647565764657475666776772269
:040BD600049A03007A
:00000001FF
